:02000000522A82
:020006000800F0
:10000800023083120313FC00C830FD00FD0B0A28E0
:06001800FC0B0A280800A1
:10001E00033083120313FD00FD0B132800000000B4
:02002E000800C8
:1000300083160313E21B1F288312861121288312C3
:1000400086158316621B272883120611292883121E
:1000500006158316E21A2F28831286103128831280
:1000600086148316621A37288312061039288312E1
:10007000061483165C183F28831206164128831243
:1000800006128616032086128316E2194A28831266
:1000900086114C2883128615831662195228831202
:1000A00006115428831206158316E2185A28831263
:1000B00086105C28831286148316621862288312C5
:1000C000061064288312061483165C186A288312AB
:1000D00006166C28831206128616032086128316D3
:0C00E0005C1C7428042075280F20080008
:1000EC00831603135C106108E200182083165C145D
:0200FC000800FA
:0A00FE00C3308312031385050800C8
:0E010800831603135B088A005A088200080061
:1001160083160313E00160085F07840000080319D3
:100126009C2860085F0784000008E1007620E00A4A
:040136008E28080007
:10013A007F20A7280515C7288515C7280516C728AB
:10014A008516C72800306106031DAD2800306006F9
:10015A0003199F2800306106031DB5280130600687
:10016A000319A12800306106031DBD28023060066C
:10017A000319A32800306106031DC5280330600651
:06018A000319A52808007E
:10019000710DF80DF90D7408F8027508031C750F40
:1001A000F902F00DF10D0F30FC00710DF80DF90D95
:1001B0007408701CE128F8027508031C750FF90219
:1001C000E628F80775080318750FF907F00DF10D0B
:1001D000FC0BD5287018F2287408F8077508031866
:0801E000750FF907000008008B
:1001E800831203137408003A031D03297508003AA3
:1001F800031D0329FF30F0007F30F1005C298312D2
:100208000313FD01F901F8017108700403190034A2
:1002180071087506FA00FA1BFD09FB01F51F19297B
:10022800F409F509F40A0319F50AF11F2029F00960
:10023800F109F00A0319F10A71087504FA00FA1BAA
:100248003529C8207B184829FD1F0034F009F10919
:10025800F00A0319F10AF809F909F80A0319F90A61
:100268000034F51F4429F11B40297108F900700872
:10027800F800F101F0012829F101F001F00A003439
:10028800F109F009FB0A2529F80A0319F90A740883
:100298007802031D282975087902031D2829F90108
:1002A800F801F00A0319F10AF11F28290000FF34A8
:0202B80008003C
:1002BA00013083160313E200182080308316E2000F
:1002CA0018203C308316DF008B209D2098290430AB
:1002DA00FB00CF30FC000130FD00FD0B7229FC0B46
:1002EA007229FB0B722900000000B0290730FB00BD
:1002FA005830FC005930FD00FD0B8129FC0B812987
:10030A00FB0B812900000000B0290930FB00E13015
:10031A00FC00B230FD00FD0B9029FC0B9029FB0B71
:10032A0090290000B02900304906031D9E2900309B
:10033A00480603196C2900304906031DA629013015
:10034A00480603197B2900304906031DAE290230ED
:0A035A00480603198A297F200800D5
:10036400013083160313E200182080308316E20064
:1003740018204D308316DF008B20C030E200182097
:1003840048084A3E840000088316DF008B200800DA
:10039400013083160313E200182080308316E20034
:1003A400182020308316DF008B20C030E200182094
:0A03B4002C308316DF008B200800B8
:1003BE008316031386120612061086100611861176
:1003CE00831286120612861106118610061004205C
:1003DE000420042086140614861603208612042098
:1003EE008616032086120420861603208612042009
:1003FE000610861603208612042086160320861207
:10040E008610861586160320861204208611061481
:10041E0086160320861206108616032086120420E6
:10042E0086160320861206148616032086120420D2
:10043E0006108616032086128615061586140614D7
:0E044E00861603208612042083165C14080014
:10045C00013083160313E200182080308316E2006B
:10046C001820A0308316DF008B20C030E20018204B
:10047C006008623E840000088316DF008B200800B1
:10048C0084208A110A128000840ADA0A0319DB0A12
:08049C00F003031D462A0800CD
:1004A4009223DF2102308500073083129F008316D8
:1004B40081137F20C701CA210730FB005830FC009C
:1004C4005930FD00FD0B642AFC0B642AFB0B642AE3
:1004D4000000000001308312C7002E228312851809
:1004E400F72A1130FC003A30FD00FD0B772AFC0B93
:1004F400772A00008518F72A8316DD01DE018312AE
:1005040085189C2A073083165E02031D8B2AD0307F
:100514005D0203189C2A0430FC003D30FD00FD0BF5
:10052400912AFC0B912A000000000A30DD07031811
:10053400DE0A812A831603305E02031DA32AE830F3
:100544005D02031CBC2A83124708013A031DB02A2A
:100554000230C700C801C901B221BB2A831247086F
:10056400023A031DBB2A0330C7005D210130C700D6
:100574002E22F32A83124708013A031DD82A600861
:10058400013EF00000300318013E6107F100043021
:10059400F4000030F500F4207808F0007908F10048
:1005A4007008E0007108E1002E22F32A8312470844
:1005B400023A031DF32A4808013EF00000300318F4
:1005C400013E4907F1000330F4000030F500F42047
:1005D4007808F0007908F1007008C8007108C900B3
:1005E400B22183128518F72AF32A0430FC003D3027
:1005F400FD00FD0BFB2AFC0BFB2A00000000702A07
:02060400022BC7
:1007240020308400463083120313F000083083160F
:10073400DA000330DB004622A030840010300313BB
:10074400F00078308316DA000330DB00462266308E
:1007540084000A300313F00088308316DA00033073
:10076400DB004622B03084002A300313F0004E3000
:0C0774008316DA000330DB004622080088
:10061000423465346D342D34763469346E34643448
:080620006F3420346134003412
:100628006D3461347134753469346E346134203416
:10063800643465342034633468346F34703400347F
:1006480041346734753461347234643465342E341B
:060658002E342E340034A4
:02065E00003466
:04066000003400342E
:06066400B034B834D334B9
:10066A004534733463346F346C3468346134203401
:10067A006F342034543461346D3461346E346834E8
:06068A006F343A34003425
:0406900000340034FE
:08069400BE34C734CC346634D7
:10069C00503465347134753465346E346F340034D1
:0C06AC004D346534643469346F3400341C
:1006B8004834653469346E3465346B3465346E346B
:0206C8000034FC
:0A06CA0053346B346F346C34003489
:0E06D40042347234613468346D346134003461
:0E06E2004734723461346E346434653400344D
:1006F0004534733463346F346C346834613420347B
:100700006F342034433468346F3470343A340034F6
:1007100041346E3474346134723474346934633403
:04072000613400340C
:02400E006A2125
:00000001FF
